:020000040000FA
:10000000FF00506172743A204C464535552D32350B
:10001000462D36434142474132353600FFFFFFBD92
:10002000B3FFFFFFFF3B000000E2000000411110A2
:100030004322000000400000004600000082911DA5
:100040008A00000000000000000000000000000026
:1000500000000000000000000000000000000000A0
:100060000000000000000000000000000000000090
:100070000000000000000000000000000000000080
:100080000000000000000000000000B1D4FF0000EC
:100090000000000000000000000000000000000060
:1000A0000000000000000000000000000000000050
:1000B0000000000000000000000000000000000040
:1000C0000000000000000000000000000000000030
:1000D0000000000000000000D902FF000000000046
:1000E0000000000000000000000000000000000010
:1000F0000000000000000000000000000000000000
:1001000000000000000000000000000000000000EF
:1001100000000000000000000000000000000000DF
:100120000000000000D902FF0000000000000000F5
:1001300000000000000000000000000000000000BF
:1001400000000000000000000000000000000000AF
:10015000000000000000000000000000000000009F
:10016000000000000000000000000000000000008F
:100170000000D902FF0000000000000000000000A5
:10018000000000000000000000000000000000006F
:10019000000000000000000000000000000000005F
:1001A000000000000000000000000000000000004F
:1001B000000000000000000000000000000000D966
:1001C00002FF00000000000000000000000000002E
:1001D00000000000000000004000000000000000DF
:1001E000000000000000000000000000000000000F
:1001F00000000000000000000000000000000400FB
:1002000001000000001000000000000054B6FF00D4
:1002100000000000000000000000000000000000DE
:1002200000000000000000000000000000000000CE
:1002300000000000000000000000000000000000BE
:1002400000000000000000000000000200000000AC
:100250000000000000000000005B03FF0000000041
:10026000000000000000000000000000000000008E
:10027000000040000000000000000000000000003E
:10028000000000000000000000000000000000006E
:10029000000000000000000000000100000000104D
:1002A000000000000000D0B1FF00000000000000CE
:1002B000000000000000000000000000000000003E
:1002C000000000000000000000000000000000002E
:1002D000000000000000000000000000000000001E
:1002E000000000000000000000000000000000000E
:1002F000000000D902FF0000000000000000000024
:1003000000000000000000000000000000000000ED
:1003100000000000000000000000000000000000DD
:1003200000000000000000000000000000000000CD
:1003300000000000000000000000000000000000BD
:10034000D902FF00000000000000000000000000D3
:10035000000000000000000000000000000000009D
:10036000000000000000000000000000000000008D
:10037000000000000000000000000000000000007D
:1003800000000000000000000000000000D902FF93
:10039000000000000000000000000000000000005D
:1003A000000000000000000000000000000000004D
:1003B000000000000000000000000000000000003D
:1003C000000000000000000000000000000000002D
:1003D00000000000000000000000D902FF00000043
:1003E000000000000000000000000000000000000D
:1003F00000000000000000000000000000000000FD
:1004000000000000000000000000000000000000EC
:1004100000000000000000000000000000000000DC
:1004200000000000000000D902FF000000000000F2
:1004300000000000000000000000000000000000BC
:1004400000000000000000000000000000000000AC
:10045000000000000000000000000000000000009C
:10046000000000000000000000000000000000008C
:1004700000000000D902FF000000000000000000A2
:10048000000000000000000000000000000000006C
:10049000000000000000000000000000000000005C
:1004A000000000000000000000000000000000004C
:1004B000000000000000000000000000000000003C
:1004C00000D902FF00000000000000000000000052
:1004D000000000000000000000000000000000001C
:1004E000000000000000000000000000000000000C
:1004F00000000000000000000000000000000000FC
:100500000000002000000000000000000000710E4C
:10051000FF000000000000000000000000000000DC
:1005200000000000000000000000000000000000CB
:1005300000000000000000000000000000000000BB
:10054000000000000000000000000000100000108B
:1005500001100000000000000000005A8DFF0000A4
:10056000000000000000000000000000000000008B
:10057000000000000000000000000000000000007B
:10058000000000000000000000000000000000006B
:1005900000000000000000000010000010411040AA
:1005A00006000000000000007282FF000000000052
:1005B000000000000000000000000000000000003B
:1005C000000000000000000000000000000000002B
:1005D000000000000000000000000000000000001B
:1005E00000000000000000000000000040000000CB
:1005F00000000000004104FF0000000000000000B7
:1006000000000000000000000000000000000000EA
:1006100000000000000000000000000000000000DA
:1006200000000000000000000000000000000000CA
:1006300000000000000000000000000000000000BA
:100640000000D902FF0000000000000000000000D0
:10065000000000000000000000000000000000009A
:10066000000000000000000000000000000000008A
:10067000000000000000000000000000000000007A
:10068000000000000000000000000000000000D991
:1006900002FF000000000000000000000000000059
:1006A000000000000000000000000000000000004A
:1006B000000000000000000000000000000000003A
:1006C000000000000000000000000000000000002A
:1006D000000000000000000000000000D902FF0040
:1006E000000000000000000000000000000000000A
:1006F00000000000000000000000000000000000FA
:1007000000000000000000000000000000000000E9
:1007100000000000000000000000000000000000D9
:10072000000000000000000000D902FF00000000EF
:1007300000000000000000000000000000000000B9
:1007400000000000000000000000000000000000A9
:100750000000000000000000000000000000000099
:10076000000000000000000000000201000A00205C
:10077000000000000000517EFF00000000000000AB
:100780000000000000000000000000000000000069
:100790000000000000000000000000000000000059
:1007A0000000000000000000000000000000000049
:1007B0000000000000000000000000000000000039
:1007C000000000D902FF000000000000000000004F
:1007D0000000000000000000000000000000000019
:1007E0000000000000000600000000000000000003
:1007F00000000000000000000000000000000000F9
:1008000000000000000000000000000000000000E8
:10081000DE05FF00000000000000000000000000F6
:1008200000000000000000000000000000000000C8
:1008300000000000000001000000001000000000A7
:100840000000000010000000010000000000000097
:10085000000200000A0040000000000000DD48FF28
:100860000000000000000000000000000000000088
:100870000000000000000000000000000000000078
:100880000000000000000000000000000000000068
:100890000000000000000000000000000000000058
:1008A0008000000000000000000053A1FF000000D5
:1008B0000000000000000000000000000000000038
:1008C0000000000000000000000000000000000028
:1008D00001000000001000000000000000001000F7
:1008E0000000010000000000000000000000000007
:1008F00000000000000000A677FF000000000000DC
:1009000000000000000000000000000000000000E7
:1009100000000000000000000000000000000000D7
:1009200000000000000000000000000000000000C7
:1009300000000000000000000000000000000000B7
:1009400000000000D902FF000000000000000000CD
:100950000000000000000000000000000000020095
:100960000000000000000000002012000000000055
:100970000000000000000200000000200000000055
:10098000000000000000000008000011000001004D
:100990000088C6FF0000000000000000000000000A
:1009A000000000000000000000000000012088009E
:1009B00000000000100400000020000000220900D8
:1009C000500020000400521200C0001404028049AC
:1009D00002A0290000000008200000000000E68FAF
:1009E000FF00000000000000000000000000000008
:1009F00000000000000000000000000000000000F7
:100A0000000000800000000800000000000000005E
:100A100008000000008000000000010000040050F9
:100A200000000000104100000100002BC5FF000085
:100A300000000000000000000000000000000000B6
:100A4000004000004000000005802000002004005D
:100A500000840020000800800000A00800000000C2
:100A6000200800A40090000000000000000000002A
:100A70000000000000000000F092FF0000000000F5
:100A80000000000000000000000000000000000066
:100A90000000040141100000000000100540140097
:100AA000401000004411005000401404005415414F
:100AB000400012040400510000010000100000106A
:100AC00000000000007519FF000000000000000099
:100AD0000000000000000000000000000000000016
:100AE000000000002000002000000080002000081E
:100AF00000800000C008000000004000012001004C
:100B000000000000000000000000000000000000E5
:100B100000001EF7FF0000000000000000000000C1
:100B20000000000080000000400000000000000005
:100B3000000000000004800004000000000000002D
:100B40000000000000000000100000001000000085
:100B50000000000000000000000000000000007124
:100B60004AFF00000000000000000000000000003C
:100B70000100000000000000400000000400000030
:100B80000000010000000000000000000000000064
:100B9000000000000000000400000000000000A0B1
:100BA00000000000000000000000000030E3FF0033
:100BB0000000000000000000000000000000000035
:100BC0000000000000000000000000000000000025
:100BD0000000000000000000000000000000000015
:100BE0000000000000000000000000000000000005
:100BF000000000000000000000D902FF000000001B
:100C000000000000000000000000000000001000D4
:100C100000000000000000000000000100000000D3
:100C200000000000000000010000000000000000C3
:100C300000000400000000000000000000000000B0
:100C4000000000400000788FFF000000000000005E
:100C50000000000000000004000000000000000090
:100C60000000008000000000000000000000000004
:100C70000000000000000000000000000000000074
:100C80000000000000000000000000000000000064
:100C90000000003BB5FF0000000000000000000065
:100CA0000000000004000000000000000000000040
:100CB0000000000000000000000000000000000034
:100CC0000000000000000000000000000000000024
:100CD0000000000000000000000000000000000014
:100CE0008D02FF0000000000000000000000000076
:100CF00000000000000000000000000000000000F4
:100D000000000000000000000000000000000000E3
:100D100000000000000000000000000000000000D3
:100D200000000000000000000000000000D902FFE9
:100D300000000000000000000000000000000000B3
:100D400000000000000000000000000000000001A2
:100D50000000000000000002000000000000000091
:100D6000000000000000040000000000000000007F
:100D700000000080000000000000CCB2FF00000076
:100D80000000000000000000000000000000001053
:100D90000000000000000000000000000000000053
:100DA0000000000000000000000000000000000043
:100DB0000000000000000000000000000000000033
:100DC00000000000420000E7D5FF00000000000026
:100DD000000000000000000000000000000000080B
:100DE00020000001080000000000000000020000D8
:100DF00000000000000100000000000000000000F2
:100E000000000000000000002080000000200080A2
:100E100000008000B56AFF00000000000000000034
:100E200000000000000000000000000000000000C2
:100E300000000000000000000000040000000400AA
:100E400000000000000000000000000000000000A2
:100E500000000000004100000000C0010000000090
:100E6000007BBCFF0000000000000000000000004C
:100E70000000000000000000000820000000080042
:100E80000000000000000000000000000000000062
:100E90000000000000000000000000000000000052
:100EA00000000000000000000000000280004FB4BD
:100EB000FF00000000000000000000000000000033
:100EC0000000000000000000000000000000000022
:100ED0000000000000000000000000000000000012
:100EE0000000000000000000000000000000000002
:100EF0000000000000000000000000D902FF000018
:100F000000000000000000000000000000000000E1
:100F100000000000000000000000000000000000D1
:100F200000000000000000000000000000000000C1
:100F300000000000000000000000000000000000B1
:100F40000000000000000000D902FF0000000000C7
:100F50000000000000000000000000000000000091
:100F60000000000000000000000000000000000081
:100F70000000000000000000000000000000000071
:100F80000000000000000000000000000000000061
:100F90000000000000D902FF000000000000000077
:100FA0000000000000000000000000000000000041
:100FB0000000000000000000000000000000000031
:100FC0000000000000000000000000000000000021
:100FD0000000000000000000000000000000000011
:100FE0000000D902FF000000000000000000000027
:100FF00000000000000000000000000000000000F1
:1010000000000000000000000000000000000000E0
:1010100000000000000000000000000000000000D0
:10102000000000000000000000000000000000D9E7
:1010300002FF0000000000000000000000000000AF
:1010400000000000000000000000000000000000A0
:101050000000000000000000000000000000000090
:101060000000000000000000000000000000000080
:10107000000000000000000000000000D902FF0096
:101080000000000000000000000000000000000060
:101090000000000000000000000000000000000050
:1010A0000000000000000000000000000000000040
:1010B0000000000000000000000000000000000030
:1010C000000000000000000000D902FF0000000046
:1010D0000000000000000000000000000000000010
:1010E0000000000000000000000000000000000000
:1010F00000000000000000000000000000000000F0
:1011000000000000000000000000000000000000DF
:10111000000000000000D902FF00000000000000F5
:1011200000000000000000000000000000000000BF
:1011300000000000000000000000000000000000AF
:10114000000000000000000000000000000000009F
:10115000000000000000000000000000000000008F
:10116000000000D902FF00000000000000000000A5
:10117000000000000000000000000000000000006F
:10118000000000000000000000000000000000005F
:10119000000000000000000000000000000000004F
:1011A000000000000000000000000000000000003F
:1011B000D902FF0000000000000000000000000055
:1011C000000000004000000002000000400000009D
:1011D00004000000000008000014000000044000AB
:1011E00000000000000000000000000000200000DF
:1011F00000000000000000000000000000123FFF9F
:10120000000000000000000000000002002010802C
:1012100000000000000000000000000000000000CE
:10122000000000020000000020000080000000001C
:1012300000000000000000000000080000000000A6
:10124000000000080000002000001B12FF0000004A
:1012500000000000000000000400001080000000FA
:10126000000000000000000000000000000000007E
:10127000040000000040000000000000000000002A
:10128000000000000000000000000000000000005E
:1012900000000000000000CB4EFF00000000000036
:1012A000000000000000000000000000000000003E
:1012B000000000000000000000000000000000002E
:1012C000000000000000000000000000000000001E
:1012D00000000000000200000000000000100000FC
:1012E000000000004A0DFF000000000000000000A8
:1012F00000000000200000002000000002000000AC
:10130000200000000200000000000800000A0000A9
:101310000002A0000000000000000000000000002B
:101320000028000000000000000000000000200075
:10133000009898FF0000000000000000000000007E
:101340000400000000000000000000000000000099
:10135000000000400000000000000000000000004D
:10136000000000000000000000000000000000007D
:10137000000000000000000000000000000000C5A8
:10138000FF0000000000000000000000000000005E
:10139000000000000000000000000000000000004D
:1013A000000000000000000000000000000000003D
:1013B000000000000000000000000000000000002D
:1013C0000000000000000000000000D902FF000043
:1013D000000000000000000000000000000000000D
:1013E00000000000000000000000000000000000FD
:1013F00000000000000000000000000000000400E9
:1014000000000000000000000000000014000000C8
:1014100000000000000000000BF9FF0000000000C9
:1014200000000000000000020000000000000000BA
:10143000000000000000000000002000000000008C
:101440000000000000000000000000040000000098
:101450000000000000000400001400000000000074
:101460000000000000A300FF0000000000000000DA
:10147000000000000000000000000000000000006C
:10148000000000000000000000000000000000005C
:10149000000000000000000000000000000000004C
:1014A000000000000000000000000000000000003C
:1014B0000000D902FF000000000000000000000052
:1014C000000000008000000000000000000000009C
:1014D000000000000000000000000000000000000C
:1014E00000000000000000000000000000000000FC
:1014F000000000000000000000000000000000D319
:1015000082FF00000000000000000000000000005A
:1015100000000000000000000000000000000000CB
:1015200000000000000000000000000000000000BB
:1015300000000000000000000000000000000000AB
:10154000000000000000000000000000D902FF00C1
:10155000000000000000000000000000000000008B
:10156000000000000000000000000000000000007B
:10157000000000000000000000000000000000006B
:10158000000000000000000000000000000000005B
:10159000000000000000000000D902FF0000000071
:1015A000000000000000000000000000000000003B
:1015B000000000000000000000000000000000002B
:1015C000000000000000000000000000000000001B
:1015D000000000000000000000000000000000000B
:1015E000000000000000D902FF0000000000000021
:1015F00000000000000000000000000000000000EB
:1016000000000000000000000000000000000000DA
:1016100000000000000000000000000000000000CA
:1016200000000000000000000000000000000000BA
:10163000000000D902FF00000000000000000000D0
:10164000000000000000000000000000000000009A
:10165000000000000000000000000000000000008A
:10166000000000000000000000000000000000007A
:10167000000000000000000000000000000000006A
:10168000D902FF000000000000000200200000203E
:1016900002008000000000000000000000000000C8
:1016A00000000000000000200000200000000200F8
:1016B0000000000000000002000000000000000028
:1016C000000000000000000000000000007593FF13
:1016D000000000000000000000000000000000000A
:1016E00000000000000000000000000000000000FA
:1016F00000000000000000000000000000000000EA
:1017000000000000000000000000000000000000D9
:1017100000000000000000000000D902FF000000EF
:1017200000000000000000000000000000000000B9
:1017300000000000000000000000000000000000A9
:101740000000000000000000000000000000000099
:101750000000000000000000000000000000000089
:1017600000000000000000D902FF0000000000009F
:1017700000000000400000400400000000400004A1
:1017800000000000240000000000400000040000F1
:101790000000200000000400000000000000000025
:1017A000010000000000000011000000008801009E
:1017B000000100004159FF0000000000000000008F
:1017C00000000000000000000000000000400000D9
:1017D00000000000000000000000200040000000A9
:1017E00000000000000000000000000004000000F5
:1017F00000000000000000000000000800000800D9
:10180000009D2AFF000000000000000006002000EC
:1018100000200200000006000000000000000000A0
:101820000000000024000002000000000000000092
:101830000000000000000000000000980000000010
:10184000000000800000000000000000000021D720
:10185000FF00000000000000000000000000000089
:101860000000000000000000000000000000000078
:101870000000000000000000000000000000000068
:101880000000000000000000000000000000000058
:101890000000000000000000000000D902FF00006E
:1018A0000000000000020020000000020000000014
:1018B00000200002000000002400000000000000E2
:1018C0000220200000202000000202000000000092
:1018D00000000000000000000000000008080000F8
:1018E00008880800008880007B0EFF0000000000D0
:1018F00000000000000000000000000000000000E8
:1019000000000000000000000000000000000000D7
:1019100000000000000000000000000000000000C7
:1019200000000000000000000000000000000000B7
:101930000000000000D902FF0000000000000000CD
:101940000000000000000000000000000000200077
:101950000000000000000000040000000020000063
:101960000000000000000000000000000002000075
:101970000000000000000000000000000100000066
:101980000000D4BFFF0000000000000000000000C5
:101990000000000000000000000000000000000047
:1019A0000000000000000000000000000000000037
:1019B0000000000000000000000000000000000027
:1019C000000000000000000000000000000000D93E
:1019D00002FF000000000000000000000000000006
:1019E00000000000000000000000000000000000F7
:1019F00000000000000000000000000000000000E7
:101A000000000000000000000000000000000000D6
:101A1000000000000000000000000000D902FF00EC
:101A200000000000000000000000000000000000B6
:101A300000000000000000000000000000000000A6
:101A40000000000000000000000000000000000096
:101A50000000000000000000000000000000000086
:101A6000000000000000000000D902FF800000001C
:101A70000000000000000000000000014010000015
:101A80000000000000000000400000000000000016
:101A90000000000000100000000000000000000036
:101AA0000000000000000000000000000000000036
:101AB000000000000000CE6EFF00000000000000EB
:101AC00000000000000020000000020000000000F4
:101AD0000000000000000000000000000000000204
:101AE00000000000000000000000000000000000F6
:101AF0000000001000000000800000000011000045
:101B0000000000C171FF00000000000000000000A4
:101B100000000000000000000000000000000000C5
:101B20000000000000000000002000000000000095
:101B300000000000000000000000000000000000A5
:101B400090000000000000010000110000000000F3
:101B50002016FF0000000000000000000000000050
:101B60002000000000000000000000000000000055
:101B70000000000000000000000200000000000063
:101B80000000000000000000000000000000000055
:101B90000000000000800000000000000005FEFFC3
:101BA0000000000000000000000000000000000035
:101BB0000000000000000000000000000000000025
:101BC0000000000000000000000000000000000015
:101BD0000000000000000000000000000000000005
:101BE00000000000000000000000D902FF0000001B
:101BF00000000000000000000000000000A00A003B
:101C000000000000000000000020000000000000B4
:101C1000200000000000080000000000000000009C
:101C20000000000000000080000000008000400074
:101C3000100000000000002627FF00000000000048
:101C40000000000000000000000000000000000094
:101C50000000000000000000000000000000000084
:101C60000000000000000000000000000000000074
:101C70000000000000000000000000000000000064
:101C800000000000D902FF0000000000000000007A
:101C90000000000000000000000000000000000044
:101CA0000000000000000000000000000000000034
:101CB0000000000000000000000000000000000024
:101CC00000000000000000004000100000000000C4
:101CD00000D007FF0000000000000000000000002E
:101CE00000000000000000000000000000000000F4
:101CF00000000000000000000000000000000000E4
:101D000000000000000000000000000000000000D3
:101D10000000000000000000000000000000D902E8
:101D2000FF000000000000000000000000000000B4
:101D300000000000000000000000000000000000A3
:101D40000000000000000000000000000000000093
:101D50000000000000000000000000000000000083
:101D60000000000000000000000000D902FF000099
:101D70000000000000000000000000000000000063
:101D80000000000000000000000000000000000053
:101D90000000000000000000000000000000000043
:101DA0000000000000000000000000000000000033
:101DB0000000000000000000D902FF000000000049
:101DC0000000000000000000000000000000000013
:101DD0000000000000000000000000000000000003
:101DE00000000000000000000000000000000000F3
:101DF00000000000000000000000000000000000E3
:101E00000000000000D902FF0000000000000000F8
:101E100002000000000004000000000000000000BC
:101E200000000000000000000000000000000000B2
:101E3000000000000400000000000000004200005C
:101E40000000000000000080000000100000000002
:101E500000002671FF0000000000000000000000EC
:101E60000000000000000000000000000000000072
:101E70000000000000000000000000000000000062
:101E80000000000000000000000000000000000052
:101E9000000000000000000000000000000000D969
:101EA00002FF000000000000000000000000000031
:101EB0000000000000000002000000002000000000
:101EC00000002000000000000000000000000000F2
:101ED0000000000000000000008000000000000082
:101EE00008000000000000000000800082D2FF0017
:101EF00000000000000000000000000000000000E2
:101F000000000000000000000000000000000000D1
:101F100000000000000000000000000000000000C1
:101F200000000000000000000000000000000000B1
:101F3000000000000000000000D902FF00000000C7
:101F40000000000000006000000008000000000029
:101F5000000060000000060000000000060000060F
:101F600000600000600000000000000000000000B1
:101F70000000000800000000000000001800000041
:101F8000000000000000D00BFF0000000000000077
:101F9000000000000000000000000000000002003F
:101FA0000000000000000000000000000000000031
:101FB00000000000000400000000000000004000DD
:101FC0000000000000000008000000000000000009
:101FD000008000C4D7FF00000000000000000200E5
:101FE00000000000120000000000000000000000DF
:101FF0004000000000004000000000000000000061
:1020000000000000000000000000000201100000BD
:102010000000000000800000000800000000000038
:10202000B2B4FF000000000000000000000000004B
:1020300000000000000000000000000000000000A0
:10204000000000000000010000000000000000008F
:102050000000000000000000000000000000000080
:10206000000000000000000000000000004A21FF06
:102070000000000000000000000000000000000060
:102080000000000000001000000000000000000040
:102090000000000000000000000000000000000040
:1020A000000000000000000000000400000000002C
:1020B00000000000000000000000B728FF00000042
:1020C0000000000000000000000000000000000010
:1020D0000000000000000000000000000000000000
:1020E00000000000000000000000000000000000F0
:1020F00000000000000000000000000000000000E0
:1021000000000000000000D902FF000000000000F5
:1021100000000000000000000000000000000000BF
:10212000100000000000000000000000000080001F
:10213000000000000000000000000000000000009F
:10214000000000000400000000000000000000008B
:10215000000000003EBBFF00000000000000000087
:10216000000000000000000000000000000000006F
:10217000000000000000000000000000000000005F
:10218000000000000000000000000000000000004F
:10219000000000000000000000000000000000003F
:1021A00000D902FF00000000000000000000000055
:1021B000000000000000000000000000000000001F
:1021C000000000000000000000000000000000000F
:1021D00000000000000000000000000000000000FF
:1021E0000000000000000000000000000000D90214
:1021F000FF000000000000000000000000000000E0
:1022000000000000000000000000000000000000CE
:1022100000000000000000000000000000000000BE
:1022200000000000000000000000000000000000AE
:102230000000000000000000000000D902FF0000C4
:10224000000000000000000000000000000000008E
:10225000000000000000000000000000000000007E
:10226000000000000000000000000000000000006E
:10227000000000000000000000000000000000005E
:102280000000000000000000D902FF000000000074
:10229000000000000000000000000000000000003E
:1022A000000000000000000000000000000000002E
:1022B000000000000000000000000000000000001E
:1022C000000000000000000000000000000000000E
:1022D0000000000000D902FF000000000000000024
:1022E00000000000000000000000000000000000EE
:1022F00000000000000000000000000000000000DE
:1023000000000000000000000000000000000000CD
:1023100000000000000000000000000000000000BD
:102320000000D902FF0000000000000000000000D3
:10233000000000000000000000000000000000009D
:10234000000000000000000200000000000000008B
:102350000000000000000000000000000000080075
:102360000000000000000008080000010100003526
:10237000D2FF00000000000000000000000000008C
:102380000400000000000000000000000000000049
:10239000000000000201000000000000000000003A
:1023A0000000000000000000000000080400000021
:1023B000000000000800000001000000627EFF0035
:1023C000000000000000000000000000000000000D
:1023D00000000000186000000198000000000000EC
:1023E00000020000000000000000000000000000EB
:1023F00000000000000000000800000000000000D5
:10240000000800000001010000DD34FF00000000B2
:1024100000000000000000000000000000000000BC
:1024200000000000000000000000000000000200AA
:10243000000000000000000000000000000000009C
:10244000000000000008000000000000000008007C
:102450000000010000003D46FF00000000000000F9
:102460000000000000000004000000000000000068
:10247000000000000000000000000000000000005C
:10248000000000000000000000000000000000004C
:102490000000080000000000000000080800000123
:1024A000000000A111FF000000000000000000007B
:1024B000000000000000000000000000000000001C
:1024C000000000000000000000000000000000000C
:1024D00000000000000000000000000000000008F4
:1024E00000000000000000000800000001000000E3
:1024F0007D92FF00000000000000000000000000CE
:1025000000000000000000000000000000000000CB
:1025100000000000000000000000000000000000BB
:1025200000000000000000000000000008000000A3
:10253000001000400008000000010000007F3AFF8A
:10254000000000000000000000000000000000008B
:10255000000000000000000000000000000000007B
:10256000000000000000000000000000000000006B
:102570000000000000000000000800000000100043
:10258000400008000000010000007F3AFF0000004A
:10259000000000000000000000000000000000003B
:1025A0000000000000000000000000000000000229
:1025B000000000000000000000000000000000001B
:1025C000000000000000000000000000000000000B
:1025D0000000000000000099D6FF0000000000008D
:1025E00000000000000000000000000000000000EB
:1025F0000000000000000000000000000202800057
:10260000000000000000000000000000000000408A
:1026100000000000020000004080000000400000B8
:10262000000000008591FF00000000000000000095
:10263000000000000000000000000000000000009A
:102640000000000000000000000200000000000088
:102650000000000200000000000000000000000078
:102660000000000000000000000000010000000069
:10267000006FD5FF00000000000000000000000017
:10268000000000000000000000000000000000004A
:102690000000000000000200000000000000000137
:1026A000000000000000000000000000000000002A
:1026B000000000000000001000800000000034C78F
:1026C000FF0000000000000000000000000000000B
:1026D00000000000000000000000000000000000FA
:1026E00000000000020000000000000001000000E7
:1026F000000000000000200000000000000000209A
:10270000800000002000000000000050BEFF00001C
:1027100000000000000000000000000000000000B9
:1027200000000000000000000000000000000000A9
:102730000000000000000000000000000000000099
:102740000000000000000000000000000000000089
:102750000000000000000000D902FF00000000009F
:102760000000000000000000000000000000000069
:102770000000000000000000000000000000000059
:102780000000000000000002000000000000000047
:10279000000000000000000000040000000008002D
:1027A0000000000000DE7CFF0000000000000000D0
:1027B0000000000000000000000000000000000019
:1027C0000000000000000000000000000000000009
:1027D00000000000000000000000000000000000F9
:1027E00000000000000000000000000000000000E9
:1027F0000000D902FF0000000000000000000000FF
:1028000000000000000000000000000000000000C8
:1028100000000000000000000000000000000000B8
:1028200000000000000000000000000000000000A8
:10283000000000000000000000000000000000D9BF
:1028400002FF000000000000000000000000000087
:102850000000000000000000000000000000000078
:102860000000000000000000000000000000000068
:102870000000000000000000000000000000000058
:1028800004000000000000000000000058FFFF00EE
:102890000000000000000000000000000000000038
:1028A0000000000000000000000000000000000028
:1028B0000000000000000000000000000000000018
:1028C0000000000000000000000000000000000008
:1028D000000000000000000000D902FF000000001E
:1028E00000000000000000000000000000000000E8
:1028F00000000000000000000000000000000000D8
:1029000000000000000000000000000000000000C7
:1029100000000000000000000000000000000000B7
:10292000000000000000D902FF00000000000000CD
:102930000000000000000000000000000000000097
:102940000000020000000000000000040000000081
:102950000000000000000000000000000000000077
:102960000000000000000000000000000000000067
:102970000000000279FF00000000000000000000DD
:102980000000000000000000000000000002000243
:10299000000000000000020004000000000000022F
:1029A00000000000000000001200004000000000D5
:1029B00000108000200000000000208000000000C7
:1029C0001279FF000000000000000000000000007D
:1029D00000000000000000000000000002000000F5
:1029E00000000000000400000000000000000000E3
:1029F00000000000000000000000000000000000D7
:102A000000000000000000010000000000FA7AFF52
:102A100000000000000000000000000000000000B6
:102A200000000000000000000002000000000000A4
:102A300000000480000000000000000020000000F2
:102A40000000000000200000000000000000000066
:102A500000000000000000000000506DFF000000BA
:102A60000000000000000000000000000000000066
:102A7000000060000400008000000000000400006E
:102A8000000000000000040000000000000000142E
:102A900000004000200008001100010000000000BC
:102AA000000000010000000315FF0000000000000E
:102AB00000000000000000000000000000000060B6
:102AC0000000000000000000000000000100000005
:102AD0000000000000004000000000000000002096
:102AE00000000008000000010000000000000000DD
:102AF000010000006AD7FF00000000000000000095
:102B00000000000000000000000000006000000065
:102B10000080000000000000000000000000000035
:102B20000000000000000000000000000000200085
:102B3000080000000100000000000000000100008B
:102B4000009122FF000000000000000000000000D3
:102B50000000000000000000006000000000000015
:102B60000000000000000000000000000000000065
:102B7000000000000000000000000000000800004D
:102B80000001200000000000200001000000A74B11
:102B9000FF00000000000000000000000000000036
:102BA00000000000000060000000020000000000C3
:102BB0000000000400000000000000000000000011
:102BC00000000000000000000000080000000100FC
:102BD000000000000000000100000073E2FF0000A0
:102BE00000000000000000000000000000000000E5
:102BF0000000006000000002000000000000000073
:102C000004000000000000000000000000000000C0
:102C100000000000000000080000000100000000AB
:102C2000000000000100000073E2FF00000000004F
:102C30000000000000000000000000000000000094
:102C4000600000000200000000000000000400001E
:102C50000000000000000000000000000000000074
:102C6000000000000800000001000000000000005B
:102C7000000100000073E2FF0000000000000000FF
:102C800000000000000000000000000000600000E4
:102C9000000200000000000000000400000000002E
:102CA0000000000000000000000000000000000024
:102CB000000800000001000000000000000001000A
:102CC000000073E2FF0000000000000000000000B0
:102CD00000000000000000000000000000000000F4
:102CE00000000000000000000000000000000000E4
:102CF00000000000000000000000000000000000D4
:102D0000000000000000000000000000000000D9EA
:102D100002FF0000000000000000000000000000B2
:102D200000000000000000000000000000000000A3
:102D30000000000000000000000000000000000093
:102D40000000000000000000000000000000000083
:102D5000000000000000000000000000D902FF0099
:102D60000000000000000000000000000000000063
:102D70000000000000000000000000000000000053
:102D80000000000000000000000000000000000043
:102D90000000000000000000000000000000000033
:102DA000000000000000000000D902FF0000000049
:102DB0000000000000000000000000000000000013
:102DC0000000000000000000000000000000000003
:102DD00000000000000000000000000000000000F3
:102DE00000000000000000000000000000000000E3
:102DF000000000000000D902FF00000000000000F9
:102E000000000000000000000000000000000000C2
:102E100000000000000000000000000000000000B2
:102E200000000000000000000000000000000000A2
:102E30000000000000000000000000000000000092
:102E4000000000D902FF00000000000000000000A8
:102E50000000000000000000000000000000000072
:102E60000000000000000000000000000000000062
:102E70000000000000000000000000000000000052
:102E80000000000000000000000000000000000042
:102E9000D902FF0000000000000000000000000058
:102EA0000000000000000000000000000000000022
:102EB0000000000000000000000000000000000012
:102EC0000000000000000000000000000000000002
:102ED00000000000000000000000000000D902FF18
:102EE00000000000000000000000000000000000E2
:102EF00000000000000000000000000000000000D2
:102F000000000000000000000000000000000000C1
:102F100000000000000000000000000000000000B1
:102F2000000000000000004000005C01FF00000005
:102F30000000000000000000000000000000000091
:102F40000000000000000000000000000000000081
:102F50000000000000000000000000000000000071
:102F60000000000000000000000000000000000061
:102F7000000000001500005805FF000000000000E0
:102F80000000000000000000000000000000000041
:102F90000000000000000000000000000000000031
:102FA0000000000000000000000000000000000021
:102FB0000000000000000000000000000000000011
:102FC00000000000D902FF00000000000000000027
:102FD00000000000000000000000000000000000F1
:102FE00000000000000000000000000000000000E1
:102FF00000000000000000000000000000000000D1
:1030000000000000000000000000000000000A8036
:10301000005983FF000000000000000000000000D5
:1030200000000000000000000000000000000000A0
:10303000000000000000014400000000000000004B
:10304000000000000000000000000000000150002F
:1030500000000000000001500000000000005F07B9
:10306000FF00000000000000000000000000000061
:103070000000000000000000000000000000000050
:103080000000000000000000000000000000000040
:103090000000000000000000000000000000000030
:1030A00000000000000000002000005B81FF000025
:1030B0000000000000000000000000000000000010
:1030C0000000000000000000000000000000000000
:1030D000014C0000000000000000000000000000A3
:1030E000000000000000000350000000000000008D
:1030F0000350000000000000EA23FF000000000071
:1031000000000000000000000000000000000000BF
:10311000000000000000000000000000000010009F
:10312000000000000000000000000000000000009F
:10313000000000000400000000000000000000008B
:1031400000000000007357FF0000000000000000B6
:10315000000000000000000000000000000000006F
:10316000000000000000000000000000000000005F
:10317000000000000000000000000000000000004F
:10318000000000000000000000000200000000003D
:103190000000F90EFF000000000000000000000029
:1031A000000000000000000000000000000000001F
:1031B000000000000000000000000000000000000F
:1031C00000000000000000000000000000000000FF
:1031D000000000000000000000000000000000D916
:1031E00002FF0000000000000000000000000000DE
:1031F00000000000000000000000000000000000CF
:1032000000000000000000000000000000000000BE
:1032100000000000000000000000000000000000AE
:10322000000000000000000000000000D902FF00C4
:10323000000000000000000000000000000000008E
:10324000000000000000000000000000000000007E
:10325000000000000000000000000000000000006E
:10326000000000000000000000000000000000005E
:10327000000000000000018000D91CFF00000000D9
:10328000000000000000000000000000000000003E
:10329000000000000000000000000000000000002E
:1032A000000000000002000000000000000000001C
:1032B000000000000000000000000000000000000E
:1032C00000000000000059D9FF00000000000000CD
:1032D00000000000000000000000000000000000EE
:1032E00000000000000000000000000000000000DE
:1032F00000000000000000000000000000000000CE
:1033000000000000000000000000000000000000BD
:10331000000000D902FF00000000000000000000D3
:10332000000000000000000000000000000000009D
:10333000000000000000000000000000000000008D
:10334000000000000000000000000000000000007D
:10335000000000000000000000000000000000006D
:10336000D902FF0000000000000000000000000083
:10337000000000000000000000000000000000004D
:10338000000000000000000000000000000000003D
:103390000000000000000004000000000000000029
:1033A000008000000000000000000000002299FFE3
:1033B000000000000000000000000000000000000D
:1033C00000000000000000000000000000000000FD
:1033D00000000000000000000000000000000000ED
:1033E0000000000004000000000000000000800059
:1033F000000000000000000000002299FF00000013
:1034000000000000000000000000000000000000BC
:1034100000000000000000000000000000000000AC
:103420000000000000000400000000000000000098
:103430000004000000000000000000800000000008
:1034400000000000000000A32AFF000000000000B0
:103450000000000000000000000000000000000864
:10346000000000000000000000000000000000005C
:103470000000000000000000000000000000040048
:103480000000000000000000A0000000000000009C
:1034900000000000B4F0FF00000000000000000089
:1034A000000000000000000000000000000000001C
:1034B00000000000000000000000100000000000FC
:1034C00000000000000000000000000400000000F8
:1034D000000000000080000000000000000040002C
:1034E00000959CFF000000000000000000000000AC
:1034F0000000000000000000000D4000000000007F
:10350000000000000000014C00000000000000006E
:1035100000000000000000000400000000000000A7
:103520000000B50000000000000000150000F94C8C
:10353000FF0000000000000000000000000000008C
:10354000000000000000100000000010000000005B
:10355000000000000000000000000000000000006B
:1035600000000000000400000000040000000080D3
:103570000000000000000000000000CF29FF000054
:10358000000000000000000000000000000000003B
:1035900000000005400000000000000000000000E6
:1035A00001440000000000000000000000000000D6
:1035B0000000040000000000000000009500000072
:1035C0000000000000350000F4A5FF00000000002E
:1035D00000000000000000000000000000000000EB
:1035E00002A0000000A20000000000000000000097
:1035F00000000000000000000000000000000000CB
:103600000000000000A80000000000000000000012
:10361000000000000052A3FF0000000000000000B6
:10362000000000000000000000000000000000009A
:10363000000000000000000000000000000000008A
:10364000000000000000000000000000000000007A
:10365000000000000000000000000000000000006A
:103660000000D902FF000000000000000000000080
:1036700000000000000000000000054000000144C0
:10368000000000000000000000000000000000003A
:1036900000000000000000000000000000000150D9
:1036A0000000000000000000000000000000004ECC
:1036B00045FF0000000000000000000000000000C6
:1036C00000000000000000000000000010000000EA
:1036D00000000000000000000000000000000000EA
:1036E00000000000000000000000000400000000D6
:1036F0000000000000000000000000000786FF003E
:1037000000000000000000000000000000000000B9
:1037100000000000080000000000000000000000A1
:103720000000000000000000000000000000000099
:103730000000000000000000000000000000000089
:10374000000000000000000000C098FF0000000022
:103750000000000000000000000000000000000069
:103760000000000000000000000000000000000059
:103770000000000000000000000000000000000049
:103780000000000000000000000000000000000039
:10379000000000000000D902FF000000000000004F
:1037A0000000000000000000000000000000000019
:1037B0000000000000000000000000000000000009
:1037C00000000000000000000000000000010000F8
:1037D00000000000000000000000000000000000E9
:1037E000000000C814FF00000000000000000000FE
:1037F00000000000000000000000000000000000C9
:1038000000000000000000000000000000000000B8
:103810000000000000000000000000540000000054
:103820000000000000000000000000000000000098
:103830006811FF0000000000000000000000000010
:103840000000000000000000000000000000000078
:103850000000000000000000000000000000000068
:103860000000000000000000000000000000000058
:1038700000000000000000000000000000D902FF6E
:103880000000000000000000000000000000000038
:103890000000000000000000000000000000000028
:1038A0000000000000000000000000000000000018
:1038B00000000000002A00000000000000000000DE
:1038C000000000000000000000004189FF0000002F
:1038D00000000000000000000000000000000000E8
:1038E00000000000000000000000000000000000D8
:1038F00000000000000000000000000000000000C8
:1039000000000000000000000000001500000000A2
:10391000000000000000009F7AFF0000000000008F
:103920000000000000000000000000000000000097
:103930000000000000000000000000000000000087
:103940000000000000000000000000000000010076
:103950000000000000000000000000000000000067
:1039600000000000C814FF0000000000000000007C
:103970000000000000000000000000000000000047
:103980000200000000000000000400000000000031
:103990000000000000000000000000000000000027
:1039A00000000000003500000000000000000000E2
:1039B00000CBF2FF0000000000000000000000004B
:1039C00000000000000000000000000000020000F5
:1039D00000000000000004000000000000000000E3
:1039E00000000000000000000000000000000000D7
:1039F000000000000000000000000000000002794C
:103A0000FF000000000000000000000000000000B7
:103A100000000000000000000000020000000000A4
:103A20000000000400000000000000000000000092
:103A30000000000000000000000000000000002066
:103A400000000000000000000000008D8AFF000060
:103A50000000000000000000000000000000000066
:103A60000000000000000002000000000000000054
:103A70000400000000000000000000000000000042
:103A80000000000000000000000000000000000036
:103A900000000000000000000279FF0000000000AC
:103AA0000000000000000000000000000000000016
:103AB00020000000000000000000000000000000E6
:103AC00000000000000000000000000000000000F6
:103AD00000000000000000000000000000000000E6
:103AE0000000000000BF6AFF0000000000000000AE
:103AF00000000000000000000000000000200000A6
:103B000000000000000000000000000000000000B5
:103B100000000000000000000000000000000000A5
:103B20000000000000000000000000000000000095
:103B30000000BF6AFF00000000000000000000005D
:103B40000000000000000000000020000000000055
:103B50000000000000000000000000000000000065
:103B60000000000000000000000000000000000055
:103B7000000000000000000000000000000000BF86
:103B80006AFF0000000000000000000000000000CC
:103B90000000000000000020000000000000000005
:103BA0000000000000000000000000000000000015
:103BB0000000000000000000000000000000000005
:103BC000000000000000000000000000BF6AFF00CD
:103BD00000000000000000000000000000000000E5
:103BE00000000000200000000200000000000000B3
:103BF00000040000000000000000000000000000C1
:103C000000000000000000000000000000000000B4
:103C10000000000000000000006411FF0000000030
:103C20000000000000000000000000000000000094
:103C3000002000000002000000000000000004005E
:103C40000000000000000000000000000000000074
:103C50000000000000000000000000000000000064
:103C60000000000000006411FF00000000000000E0
:103C70000000000000000000000000000000200024
:103C8000000002000000000000000004000000002E
:103C90000000000000000000000000000000000024
:103CA0000000000000000000000000000000000014
:103CB0000000006411FF0000000000000000000090
:103CC00000000000000000000000002000000002D2
:103CD00000000000000000000400000000000000E0
:103CE00000000000000000000000000000000000D4
:103CF00000000000000000000000000000000000C4
:103D00006411FF000000000000000000000000003F
:103D100000000000000000000000000000000000A3
:103D20000000000000000000000000000000000093
:103D30000000000000000000000000000000000083
:103D400000000000000000000000000000D902FF99
:103D50000000000000000000000000000000000063
:103D60000000000000000000000000000000000053
:103D70000000001000000000000000000000000033
:103D80000000000000000000000000000000000033
:103D900000000000000000000000EB04FF00000035
:103DA0000000000000000000000000000000000013
:103DB0000000000000000000000000000000000102
:103DC0004C000000000000000000000000000000A7
:103DD00000000000000000000000000000000000E3
:103DE00000000000000000E4F0FF00000000000000
:103DF00000000000000000000000000000000010B3
:103E000000000000100000000000000000000000A2
:103E100000000000000000000000000000000000A2
:103E20000000000000000000000000000000000092
:103E300000000000ACE1FF000000000000000000F6
:103E40000000000000000000000000000000000072
:103E5000000000000000000000014400000000001D
:103E60000000000000000000000000000000000052
:103E70000000000000000000000000000000000042
:103E800000FDF3FF00000000000000000000000043
:103E900000000000000000000002A0000000A200DE
:103EA0000000000000000000000000000000000012
:103EB0000000000000000000000000000000000002
:103EC0000000000000000000000000000000215A77
:103ED000FF000000000000000000000000000000E3
:103EE00000000000000000000000000000000000D2
:103EF00000000000000000000000000000000000C2
:103F000000000000000000000000000000000000B1
:103F10000000000000000000000000D902FF0000C7
:103F20000000000000000000000000000000000091
:103F300000000005400000014400000000000000F7
:103F40000000000000000000000000000000000071
:103F50000000000000000000000000000000000061
:103F60000000000000000000A9B7FF0000000000F2
:103F70000000000000000000000000000000000041
:103F80000000000000100000000000000000000021
:103F90000000000000000000000000000000000021
:103FA0000000000000000000000000000000000011
:103FB00000000000009FD5FF00000000000000008E
:103FC00000000000000000000000000000080000E9
:103FD00000000000000000000000000000000000E1
:103FE00000000000000000000000000000000000D1
:103FF00000000000000000000000000000000000C1
:104000000000C098FF000000000000000000000059
:1040100000000000000000000000000000000000A0
:104020000000000000000000000000000000000090
:104030000000000000000000000000000000000080
:104040000000000000000000040000000000005D0F
:1040500041FF000000000000000000000000000020
:104060000000000000000000000000000000000050
:104070000000000000000000000000000000000040
:104080000000000000000000000000000000000030
:10409000000000000000000000000000D902FF0046
:1040A0000000000000000000000000000000000010
:1040B0000000000000000000000000000000000000
:1040C00000000000000000000000000000000000F0
:1040D00000000000000000000000000000000000E0
:1040E0000010000000000000005967FF0000000001
:1040F00000000000000000000000000000000000C0
:1041000000000000000000000000000000000000AF
:10411000000000000000000000000000000000009F
:104120000000000000000000000000000000080087
:104130000000000000005932FF00000000000000F5
:10414000000000000000000000000000000000006F
:10415000000000000000000000000000000000005F
:10416000000000000000000000000000000000004F
:104170000000000000000000000000080200000035
:10418000000000DB11FF0000000000000000000044
:10419000000000000000000000000000000000001F
:1041A000000000000000000000000000000000000F
:1041B00000000000000000000000000000000000FF
:1041C00000000000000400000000000000000000EB
:1041D0000C01FF00000000000000000000000000D3
:1041E00000000000000000000000000000000000CF
:1041F00000000000000000000000000000000000BF
:1042000000000000000000000000000000000000AE
:1042100000000000000000000000000000D902FFC4
:10422000000000000000000000000000000000008E
:10423000000000000000000000000000000000007E
:10424000000000000000000000000000000000006E
:10425000000000000000000000000000000000045A
:10426000000008000000000000008C31FF0000008A
:10427000000000000000000000000000000000003E
:10428000000000000000000000000000000000002E
:10429000000000000000000000000000000000001E
:1042A000000000000000000000000000000000000E
:1042B00000000000000000D902FF00000000000024
:1042C00000000000000000000000000000000000EE
:1042D00000000000000000000000000000000000DE
:1042E00000000000000000000000000000000000CE
:1042F00000000000000000000000000000000000BE
:1043000000000000D902FF000000000000000000D3
:10431000000000000000000000000000000000009D
:10432000000000000000000000000000000000008D
:10433000000000000000000000000000000000007D
:1043400000000000000080000008000000000000E5
:1043500000790DFF000000000000000004000000D4
:104360000000000000040000001000000000000039
:10437000000000000000000000000000000000003D
:104380000000000000000000000400000000000029
:104390000000400000000C000000000400004E5C23
:1043A000FF0000000000000000000000000000000E
:1043B00000000000000000000000000000000000FD
:1043C00000000000000000000000000000000000ED
:1043D00000000000000000000000000000000000DD
:1043E0000000000800000000040000D961FF000088
:1043F00000000000000000000000000000000000BD
:1044000000000000000000000000000000000000AC
:10441000000000000000000000000000000000009C
:10442000000000000000000000000000010000206B
:104430000800000000000000554FFF0000000000D1
:104440000000000400000000000000000200000066
:104450000800000000000000000000000000000054
:10446000000000000000000000000000000000004C
:1044700002000000000000000040000000020000F8
:10448000000000000012F6FF000000000000000025
:10449000000000000000000000000000000000001C
:1044A000000000000000000000000000000000000C
:1044B00000000000000000000000000000000000FC
:1044C00000000000000000002800000000000000C4
:1044D0000000DB00FF000000000000000000000002
:1044E00000000000000000000000000000000000CC
:1044F00000000000000000000000000000000000BC
:1045000000000000000000000000000000000000AB
:104510000000000000400000000000000000005CFF
:1045200051FF00000000000000000000000000003B
:10453000000000000000000000000000000000007B
:10454000000000000000000000000000000000006B
:10455000000000000000000000000000000000005B
:1045600000000820000000000000000015A8FF0067
:10457000000000000000000000000000000000003B
:10458000000000000000000000000000000000002B
:10459000000000000000000000000000000000001B
:1045A000000000000000000000000000000000000B
:1045B0000008000000000000005932FF0000000069
:1045C00000000000000000000040000000000000AB
:1045D00000000000000000000000000000000000DB
:1045E00000000000000000000000000000000000CB
:1045F00000000000000000000000000000000800B3
:1046000000000040000043B2FF0000000000000076
:10461000000000000000000000000010000000008A
:10462000000000000000000000000000000020006A
:10463000000000000000000000000000000000007A
:104640000000000000000000000000080000000062
:104650000000000CCEFF0000000000000000000081
:104660000000000000000000080000004000000002
:10467000100000000000000000100000000000001A
:104680000100000000000000000001040000000420
:1046900010000000000000006800000000000000A2
:1046A00036E7FF00000000000000000000000000EE
:1046B000400000000000000000400000001000006A
:1046C00000000000000010000000000000010000D9
:1046D00000000000000000010200000000100000C7
:1046E00000000000000800000000400000FEF8FF8D
:1046F00000000000000000000000000000000000BA
:1047000000000000000000000000000000000000A9
:104710000000000000000000000000000000000099
:104720000000000000000000000000000000000089
:1047300008000800000000000000D99BFF000000F6
:104740000000000000000000000000000000000069
:104750000000000000000000000000000000000059
:104760000000200000000000000000000000000029
:1047700000000000000002000000000004400008EB
:1047800000000000000000EB4AFF000000000000F5
:104790000000000000000000000000000000000019
:1047A0000000000000000000000000000000000009
:1047B00000000000000000000000000000000000F9
:1047C000000000000000000040000004080000009D
:1047D000000000005F52FF00000000000000000029
:1047E00000000000000000000000000000000000C9
:1047F00000000000000000000000000000000000B9
:1048000000000000000000000000000000000000A8
:104810000000000000000010020000000000000086
:1048200000D496FF0000000000000000000000001F
:104830000000000000000000000000000000000078
:104840000000000000000000000000000000000068
:104850000000000000000000000000000000000058
:10486000000020044000000000000000000006A13D
:10487000FF00000000000000000000000000000039
:104880000000000000000000000000000000000028
:104890000000000000000000000000000000000018
:1048A0000000000000000000000000000000000008
:1048B0000000000000000000000000D902FF00001E
:1048C00000000000000000000000000000000000E8
:1048D00000000000000000000000000000000000D8
:1048E00000000000000000000000000000000000C8
:1048F00000000000000000000000000000000000B8
:104900000000000000000000D902FF0000000000CD
:104910000000000000000000000000000200000095
:104920000000000000000000000000000000000087
:104930000000002000000002000000002000000035
:104940000000000000000000000000000001000066
:104950000000000000127FFF0000000000000000C7
:104960000000000000000000001000000000200017
:104970000000C800000005200000010A0000000C33
:1049800000000001100000000900000021300000BC
:104990000000A800000830000000002000000020F7
:1049A0000000750AFF000000000000000000000089
:1049B00000000000000000000000000000000000F7
:1049C00000000000000000000000000000000000E7
:1049D00000000000000000000000000000000000D7
:1049E000000000000000000000000000000000D9EE
:1049F00002FF0000000000000000000000000000B6
:104A000000000000000000000000000000000000A6
:104A1000000000000008000000000000000002008C
:104A20000000000000000080000000000000000006
:104A3000000000000000000000000000C68AFF0027
:104A40000000000000000000000000000000000066
:104A5000140000000040000001500000000540006C
:104A600000011400000014400000011400000011B7
:104A70004000004110000000014000000010000054
:104A8000000080000000000000B471FF0000000082
:104A90000000000000000000000000000000000016
:104AA0000000000000000000000000000000000006
:104AB00000000000000000000000000000000000F6
:104AC00000800000000000000000000000000080E6
:104AD000000000000000D98AFF0000000000000074
:104AE00000000000000000000000000000000000C6
:104AF00000000000000000000000000010000000A6
:104B000000000000000200000000000000000000A3
:104B10000000000000000000000000000000000095
:104B2000000000E504FF000000000000000000009D
:104B30000000000000000000000000000000000075
:104B40000000000000000000000000000000000065
:104B50000000000000000000000000200000000035
:104B6000080000082000000000A000000020000055
:104B70001069FF00000000000000000000000000BD
:104B80000000000000000000000000000000000025
:104B90000000000000000000000000000000000015
:104BA0000000000000000000000000000000000005
:104BB00000000000000000000000000000D902FF1B
:104BC00000000000000000000000000000000000E5
:104BD00000000000000000000000000000000000D5
:104BE00000000000000000000000000000000000C5
:104BF00000000000000000000000000000000000B5
:104C000000000000000000000000D902FF000000CA
:104C10000000000000000000000000000000000094
:104C20000000000000000000000000000000000084
:104C30000000000000000000000000000000000074
:104C40000000000000000000000000000100100251
:104C5000000000000000008A4EFF0000000000007D
:104C60000000000000000000000000000000000044
:104C70000000000000000000000000000000000034
:104C80000000000000000000000000000000000024
:104C90000000000000000000000000000400000010
:104CA00000000000991AFF00000000000000000052
:104CB00000000000000000000000000000000000F4
:104CC00000000000000000000000000000000000E4
:104CD00000000000000000000000000000000000D4
:104CE00000000000000001000002000000000000C1
:104CF000006C4DFF000000000000000000000000FC
:104D000000000000000000000000000000000000A3
:104D10000000000000000000000000000000000093
:104D20000000000000000000000000000000000083
:104D300000000080081000000000000000009F97A5
:104D4000FF00000000000000000000000000000064
:104D50000000000000000000000000000000000053
:104D60000000000000000000000000000000000043
:104D70000000000000000000000000000000000033
:104D800000000080000000000000005A31FF000019
:104D90000000000000000000000000000000000013
:104DA0000000000000000000000000000000000003
:104DB00000000000000000000000000000000000F3
:104DC00000000000000000000000000000000000E3
:104DD00000020000000000005B21FF000000000056
:104DE00000000000000000000000000000000000C3
:104DF00000000000000000000000000000000000B3
:104E000000000000000000000000000000000000A2
:104E1000000000000000000000010000010204008A
:104E20000000000000BB50FF000000000000000078
:104E30000000000000000000000000000000000072
:104E40000000000000000000000000000000000062
:104E50000000000000000000000000000000000052
:104E60000000000000000000100000000000000032
:104E700000005855FF000000000000000000000086
:104E80000000000000000000000000000000000022
:104E90000000000000000000000000000000000012
:104EA0000000000000000000000000000000000002
:104EB000000000000000000000000000000000D919
:104EC00002FF0000000000000000000000000000E1
:104ED00000000000000000000000000000000000D2
:104EE00000000000000000000000000000000000C2
:104EF00000000000000000000000000000000000B2
:104F0000000000000000000000000000D902FF00C7
:104F10000000000000000000000000000000000091
:104F20000000000000000000000000000000000081
:104F30000000000000000000000000000000000071
:104F40000000000000000000000000000000000061
:104F5000000000000000000000D902FF0000000077
:104F60000000000000000000000000000000000041
:104F70000000000000000000000000000000000031
:104F80000000000000000000000000000000000021
:104F900000000000000000000000002002002424A7
:104FA000000000000000D7B2FF0000000000000079
:104FB00000000000000000000000000000000000F1
:104FC00000000000000000000000000000000000E1
:104FD00000000000000000000000000000000000D1
:104FE00000000000000000000000000002000000BF
:104FF0000000005B21FF0000000000000000000036
:1050000000000000000000000000000000000000A0
:105010000000000000000000000000000000000090
:105020000000000000000000000000000000000080
:10503000000000000000000001100000000000005F
:105040005807FF0000000000000000000000000002
:105050000000000000000000000000000000000050
:105060000000000000000000000000000000000040
:105070000000000000000000000000000000000030
:1050800000000000000000000000000000D902FF46
:105090000000000000000000000000000000000010
:1050A0000000000000000000000000000000000000
:1050B00000000000000000000000000000000000F0
:1050C00000000000000000000000000000000000E0
:1050D000000001100000000000005807FF00000061
:1050E00000000000000000000000000000000000C0
:1050F00000000000000000000000000000000000B0
:10510000000000000000000000000000000000009F
:10511000000000000000000000000000000000107F
:10512000000000000000005967FF000000000000C0
:10513000000000000000000000000000000000006F
:10514000000000000000000000000000000000005F
:10515000000000000000000000000000000000004F
:105160000000000000000000002002002A400000B3
:1051700000000000D5D5FF00000000000000000086
:10518000000000000000000000000000100000000F
:10519000000000000000000000000000000000000F
:1051A00000000000000000000000000000000000FF
:1051B00000000000000000000008200000000000C7
:1051C00000C805FF00000000000000000000000013
:1051D00000000000000000000000000000000000CF
:1051E00000000000000000000000000000000000BF
:1051F00000000000000000000000000000000000AF
:10520000000000200200A002000000000000B0FA30
:10521000FF0000000000000000000000000000008F
:10522000000000000000000000000000000000007E
:10523000000000000000000000000000000000006E
:10524000000000000000000000000000000000005E
:105250002002002802000000000000B3F9FF000057
:10526000000000000000000000000000000000003E
:10527000000000000000000000000000000000002E
:10528000000000000000000000000000000000001E
:10529000000000000000000000000000000000000E
:1052A00000400000000000001D01FF0000000000A1
:1052B00000000000000000000000000000000000EE
:1052C00008000000000000000000000000000000D6
:1052D00000000000000000000000000000000000CE
:1052E000000000000000000000000000008000003E
:1052F000000000000043ABFF0000000000000000C1
:10530000000000000000000000000000000000009D
:10531000000000000000000000004000000000004D
:10532000000000000000000000000000000000007D
:10533000000000000000000000000000000000006D
:10534000000043B1FF00000000000000000000006A
:10535000000000000000000000000000000000004D
:10536000000000000002000000000000000000003B
:10537000000000000000000000000000000000002D
:10538000000000000000000800000000000000DB3A
:10539000CCFF000000000000000000000000000042
:1053A00000000000000000000000000000000000FD
:1053B00000000400000000000000000000000000E9
:1053C00000000000000000000000000000000000DD
:1053D000000000000800000000000000DCCBFF001F
:1053E00000000000000000000000000000000000BD
:1053F00000000000000000000000000000000000AD
:10540000004000000000000000000000000000005C
:10541000000000000000000000000000000000008C
:10542000000800000000000000C381FF0000000031
:10543000000000000000000000000000000000006C
:10544000000000000000000000000000000000005C
:10545000000000000000000000000000000000004C
:105460000000000000000000000000000000080034
:105470000000000000005932FF00000000000000A2
:10548000000000000000000000000000000000001C
:10549000000000000000000000000000000000000C
:1054A00000000000000000000000000000000000FC
:1054B00000000000000000000000000800000000E4
:1054C0000000005932FF0000000000000000000052
:1054D00000000000000000000000000000000000CC
:1054E00000000000000000000000000000000000BC
:1054F00000000000000000000000000000000000AC
:10550000000000000040000048040000000000000F
:105510008CF7FF0000000000000000000000000009
:10552000000000000000000000000000000000007B
:10553000000000000000000000000000000000006B
:10554000000000000000000000000000000000005B
:1055500000002000000802000000000000731DFF92
:10556000000000000000000000000000000000003B
:10557000000000000000000000000000000000002B
:10558000000000000000000000000000000000001B
:10559000000000000000000000000000000000000B
:1055A000040008020000000000005B47FF0000004C
:1055B00000000000000000000000000000000000EB
:1055C00000000000000000000000000000000000DB
:1055D00000000000000000000000000000000000CB
:1055E0000000000000000000000000000000004873
:1055F00000000000000000D8A9FF0000000000002B
:10560000000000000000000000000000000000009A
:10561000000000000000000000000000000000008A
:10562000000000000000000000000000000000007A
:10563000000000000000000000000000000000006A
:1056400000000000D902FF20000000000000000060
:10565000000000000000000000000000000000004A
:10566000000000000000000000000000000000003A
:10567000000000000000000000000000000000002A
:105680000000000000000000000800000000000012
:1056900000FB9EFF20000000000000000000000052
:1056A00000000000000000000000000000000000FA
:1056B00000000000000000000000000000000000EA
:1056C00000000000000000000000000000000000DA
:1056D00000000000040000040000000000007FBB88
:1056E000FF000000000000000000000000000000BB
:1056F00000000000000000000000000000000000AA
:105700000000000000000000000000000000000099
:105710000000000000000000000000000000000089
:1057200000000008000000000000005932FF0000E7
:105730000000000000000000000000000000000069
:105740000000000000000000000000000000000059
:105750000000000000000000000000000000000049
:105760000000000000000000000000000000000039
:105770000000000000000000D902FF00000000004F
:105780000000000000000000000000000000000019
:105790000000000000000000000000000000000009
:1057A00000000000000000000000000000000000F9
:1057B00000000000000000000000000000080000E1
:1057C00000000000005932FF00000000000000004F
:1057D00000000000000000000000000000000000C9
:1057E00000000000000000000000000000000000B9
:1057F00000000000000000000000000000000000A9
:105800000000000000000000000000000000000098
:105810000000D902FF0000000000000000000000AE
:105820000000000000000000000000000000000078
:105830000000000000000000000000000000000068
:105840000000000000000000000000000000000058
:10585000000000800800800200000000000000DC62
:10586000C7FF000000000000000000000000000072
:105870000000000000000000000000000000000028
:105880000000000000000000000000000000000018
:105890000000000000000000000000000000000008
:1058A000800800800000000000000000FCCBFF002A
:1058B00000000000000000000000000000000000E8
:1058C00000000000000000000000000000000000D8
:1058D00000000000000000000000000000000000C8
:1058E0000000000000000000000000000080000038
:1058F00080015000000000000093CEFF0000000077
:105900000000000000000000000000000000000097
:105910000000000000000000000000000000000087
:105920000000000000000000000000000000000077
:105930000000000000000000000080000080000067
:10594000000000000000D6C8FF00000000000000BA
:105950000000000000000000000000000000000047
:105960000000000000000000000000000000000037
:105970000000000000000000000000000000000027
:1059800000000000000000000800000140000000CE
:105990000000002704FF00000000000000000000DD
:1059A00000000000000000000000000000000000F7
:1059B00000000000000000000000000000000000E7
:1059C00000000000000000000000000000000000D7
:1059D00000000000000800000000000000000000BF
:1059E000F301FF00000000000000000000000000C4
:1059F00000000000000000000000000000000000A7
:105A00000000000000000000000000000000000096
:105A10000000000000000000000000000000000086
:105A2000000000000004100000000000000819FF42
:105A30000000000000000000000000000000000066
:105A40000000000000000000000000000000000056
:105A50000000000000000000000000000000000046
:105A60000000000000000000000000000000000036
:105A7000000100104004000000014FC3FF000000BF
:105A80000000000000000000000000000000000016
:105A90000000000000000000000000000000000006
:105AA00000000000000000000000000000000000F6
:105AB00000000000000000000000008008008000DE
:105AC00000000000000000FCCBFF00000000000010
:105AD00000000000000000000000000000000000C6
